{
  "_format": "hh-sol-artifact-1",
  "contractName": "Adulam",
  "sourceName": "src/contracts/Adulam.sol",
  "abi": [
    {
      "inputs": [
        {
          "internalType": "string",
          "name": "_name",
          "type": "string"
        },
        {
          "internalType": "string",
          "name": "_symbol",
          "type": "string"
        },
        {
          "internalType": "string",
          "name": "_initBaseURI",
          "type": "string"
        }
      ],
      "stateMutability": "nonpayable",
      "type": "constructor"
    },
    {
      "anonymous": false,
      "inputs": [
        {
          "indexed": true,
          "internalType": "address",
          "name": "owner",
          "type": "address"
        },
        {
          "indexed": true,
          "internalType": "address",
          "name": "approved",
          "type": "address"
        },
        {
          "indexed": true,
          "internalType": "uint256",
          "name": "tokenId",
          "type": "uint256"
        }
      ],
      "name": "Approval",
      "type": "event"
    },
    {
      "anonymous": false,
      "inputs": [
        {
          "indexed": true,
          "internalType": "address",
          "name": "owner",
          "type": "address"
        },
        {
          "indexed": true,
          "internalType": "address",
          "name": "operator",
          "type": "address"
        },
        {
          "indexed": false,
          "internalType": "bool",
          "name": "approved",
          "type": "bool"
        }
      ],
      "name": "ApprovalForAll",
      "type": "event"
    },
    {
      "anonymous": false,
      "inputs": [
        {
          "indexed": true,
          "internalType": "address",
          "name": "previousOwner",
          "type": "address"
        },
        {
          "indexed": true,
          "internalType": "address",
          "name": "newOwner",
          "type": "address"
        }
      ],
      "name": "OwnershipTransferred",
      "type": "event"
    },
    {
      "anonymous": false,
      "inputs": [
        {
          "indexed": false,
          "internalType": "uint256",
          "name": "id",
          "type": "uint256"
        },
        {
          "indexed": true,
          "internalType": "address",
          "name": "buyer",
          "type": "address"
        },
        {
          "indexed": false,
          "internalType": "uint256",
          "name": "cost",
          "type": "uint256"
        },
        {
          "indexed": true,
          "internalType": "string",
          "name": "tokenURI",
          "type": "string"
        },
        {
          "indexed": false,
          "internalType": "uint256",
          "name": "timestamp",
          "type": "uint256"
        }
      ],
      "name": "Sale",
      "type": "event"
    },
    {
      "anonymous": false,
      "inputs": [
        {
          "indexed": true,
          "internalType": "address",
          "name": "from",
          "type": "address"
        },
        {
          "indexed": true,
          "internalType": "address",
          "name": "to",
          "type": "address"
        },
        {
          "indexed": true,
          "internalType": "uint256",
          "name": "tokenId",
          "type": "uint256"
        }
      ],
      "name": "Transfer",
      "type": "event"
    },
    {
      "inputs": [
        {
          "internalType": "address",
          "name": "to",
          "type": "address"
        },
        {
          "internalType": "uint256",
          "name": "tokenId",
          "type": "uint256"
        }
      ],
      "name": "approve",
      "outputs": [],
      "stateMutability": "nonpayable",
      "type": "function"
    },
    {
      "inputs": [
        {
          "internalType": "address",
          "name": "owner",
          "type": "address"
        }
      ],
      "name": "balanceOf",
      "outputs": [
        {
          "internalType": "uint256",
          "name": "",
          "type": "uint256"
        }
      ],
      "stateMutability": "view",
      "type": "function"
    },
    {
      "inputs": [],
      "name": "baseExtension",
      "outputs": [
        {
          "internalType": "string",
          "name": "",
          "type": "string"
        }
      ],
      "stateMutability": "view",
      "type": "function"
    },
    {
      "inputs": [],
      "name": "cost",
      "outputs": [
        {
          "internalType": "uint256",
          "name": "",
          "type": "uint256"
        }
      ],
      "stateMutability": "view",
      "type": "function"
    },
    {
      "inputs": [],
      "name": "getAllNFTs",
      "outputs": [
        {
          "components": [
            {
              "internalType": "uint256",
              "name": "id",
              "type": "uint256"
            },
            {
              "internalType": "address",
              "name": "buyer",
              "type": "address"
            },
            {
              "internalType": "uint256",
              "name": "cost",
              "type": "uint256"
            },
            {
              "internalType": "string",
              "name": "imageURL",
              "type": "string"
            },
            {
              "internalType": "uint256",
              "name": "timestamp",
              "type": "uint256"
            }
          ],
          "internalType": "struct Adulam.SaleStruct[]",
          "name": "",
          "type": "tuple[]"
        }
      ],
      "stateMutability": "view",
      "type": "function"
    },
    {
      "inputs": [
        {
          "internalType": "uint256",
          "name": "tokenId",
          "type": "uint256"
        }
      ],
      "name": "getAnNFTs",
      "outputs": [
        {
          "components": [
            {
              "internalType": "uint256",
              "name": "id",
              "type": "uint256"
            },
            {
              "internalType": "address",
              "name": "buyer",
              "type": "address"
            },
            {
              "internalType": "uint256",
              "name": "cost",
              "type": "uint256"
            },
            {
              "internalType": "string",
              "name": "imageURL",
              "type": "string"
            },
            {
              "internalType": "uint256",
              "name": "timestamp",
              "type": "uint256"
            }
          ],
          "internalType": "struct Adulam.SaleStruct",
          "name": "",
          "type": "tuple"
        }
      ],
      "stateMutability": "view",
      "type": "function"
    },
    {
      "inputs": [
        {
          "internalType": "uint256",
          "name": "tokenId",
          "type": "uint256"
        }
      ],
      "name": "getApproved",
      "outputs": [
        {
          "internalType": "address",
          "name": "",
          "type": "address"
        }
      ],
      "stateMutability": "view",
      "type": "function"
    },
    {
      "inputs": [
        {
          "internalType": "address",
          "name": "owner",
          "type": "address"
        },
        {
          "internalType": "address",
          "name": "operator",
          "type": "address"
        }
      ],
      "name": "isApprovedForAll",
      "outputs": [
        {
          "internalType": "bool",
          "name": "",
          "type": "bool"
        }
      ],
      "stateMutability": "view",
      "type": "function"
    },
    {
      "inputs": [],
      "name": "maxSupply",
      "outputs": [
        {
          "internalType": "uint256",
          "name": "",
          "type": "uint256"
        }
      ],
      "stateMutability": "view",
      "type": "function"
    },
    {
      "inputs": [],
      "name": "name",
      "outputs": [
        {
          "internalType": "string",
          "name": "",
          "type": "string"
        }
      ],
      "stateMutability": "view",
      "type": "function"
    },
    {
      "inputs": [],
      "name": "owner",
      "outputs": [
        {
          "internalType": "address",
          "name": "",
          "type": "address"
        }
      ],
      "stateMutability": "view",
      "type": "function"
    },
    {
      "inputs": [
        {
          "internalType": "uint256",
          "name": "tokenId",
          "type": "uint256"
        }
      ],
      "name": "ownerOf",
      "outputs": [
        {
          "internalType": "address",
          "name": "",
          "type": "address"
        }
      ],
      "stateMutability": "view",
      "type": "function"
    },
    {
      "inputs": [],
      "name": "paused",
      "outputs": [
        {
          "internalType": "bool",
          "name": "",
          "type": "bool"
        }
      ],
      "stateMutability": "view",
      "type": "function"
    },
    {
      "inputs": [
        {
          "internalType": "address",
          "name": "to",
          "type": "address"
        },
        {
          "internalType": "uint256",
          "name": "amount",
          "type": "uint256"
        }
      ],
      "name": "payTo",
      "outputs": [],
      "stateMutability": "nonpayable",
      "type": "function"
    },
    {
      "inputs": [],
      "name": "payToMint",
      "outputs": [],
      "stateMutability": "payable",
      "type": "function"
    },
    {
      "inputs": [],
      "name": "renounceOwnership",
      "outputs": [],
      "stateMutability": "nonpayable",
      "type": "function"
    },
    {
      "inputs": [
        {
          "internalType": "address",
          "name": "from",
          "type": "address"
        },
        {
          "internalType": "address",
          "name": "to",
          "type": "address"
        },
        {
          "internalType": "uint256",
          "name": "tokenId",
          "type": "uint256"
        }
      ],
      "name": "safeTransferFrom",
      "outputs": [],
      "stateMutability": "nonpayable",
      "type": "function"
    },
    {
      "inputs": [
        {
          "internalType": "address",
          "name": "from",
          "type": "address"
        },
        {
          "internalType": "address",
          "name": "to",
          "type": "address"
        },
        {
          "internalType": "uint256",
          "name": "tokenId",
          "type": "uint256"
        },
        {
          "internalType": "bytes",
          "name": "data",
          "type": "bytes"
        }
      ],
      "name": "safeTransferFrom",
      "outputs": [],
      "stateMutability": "nonpayable",
      "type": "function"
    },
    {
      "inputs": [
        {
          "internalType": "address",
          "name": "operator",
          "type": "address"
        },
        {
          "internalType": "bool",
          "name": "approved",
          "type": "bool"
        }
      ],
      "name": "setApprovalForAll",
      "outputs": [],
      "stateMutability": "nonpayable",
      "type": "function"
    },
    {
      "inputs": [
        {
          "internalType": "string",
          "name": "_newBaseURI",
          "type": "string"
        }
      ],
      "name": "setBaseURI",
      "outputs": [],
      "stateMutability": "nonpayable",
      "type": "function"
    },
    {
      "inputs": [
        {
          "internalType": "bool",
          "name": "_state",
          "type": "bool"
        }
      ],
      "name": "setPause",
      "outputs": [],
      "stateMutability": "nonpayable",
      "type": "function"
    },
    {
      "inputs": [
        {
          "internalType": "bytes4",
          "name": "interfaceId",
          "type": "bytes4"
        }
      ],
      "name": "supportsInterface",
      "outputs": [
        {
          "internalType": "bool",
          "name": "",
          "type": "bool"
        }
      ],
      "stateMutability": "view",
      "type": "function"
    },
    {
      "inputs": [],
      "name": "symbol",
      "outputs": [
        {
          "internalType": "string",
          "name": "",
          "type": "string"
        }
      ],
      "stateMutability": "view",
      "type": "function"
    },
    {
      "inputs": [
        {
          "internalType": "uint256",
          "name": "index",
          "type": "uint256"
        }
      ],
      "name": "tokenByIndex",
      "outputs": [
        {
          "internalType": "uint256",
          "name": "",
          "type": "uint256"
        }
      ],
      "stateMutability": "view",
      "type": "function"
    },
    {
      "inputs": [
        {
          "internalType": "address",
          "name": "owner",
          "type": "address"
        },
        {
          "internalType": "uint256",
          "name": "index",
          "type": "uint256"
        }
      ],
      "name": "tokenOfOwnerByIndex",
      "outputs": [
        {
          "internalType": "uint256",
          "name": "",
          "type": "uint256"
        }
      ],
      "stateMutability": "view",
      "type": "function"
    },
    {
      "inputs": [
        {
          "internalType": "uint256",
          "name": "tokenId",
          "type": "uint256"
        }
      ],
      "name": "tokenURI",
      "outputs": [
        {
          "internalType": "string",
          "name": "",
          "type": "string"
        }
      ],
      "stateMutability": "view",
      "type": "function"
    },
    {
      "inputs": [],
      "name": "totalSupply",
      "outputs": [
        {
          "internalType": "uint256",
          "name": "",
          "type": "uint256"
        }
      ],
      "stateMutability": "view",
      "type": "function"
    },
    {
      "inputs": [
        {
          "internalType": "address",
          "name": "from",
          "type": "address"
        },
        {
          "internalType": "address",
          "name": "to",
          "type": "address"
        },
        {
          "internalType": "uint256",
          "name": "tokenId",
          "type": "uint256"
        }
      ],
      "name": "transferFrom",
      "outputs": [],
      "stateMutability": "nonpayable",
      "type": "function"
    },
    {
      "inputs": [
        {
          "internalType": "address",
          "name": "newOwner",
          "type": "address"
        }
      ],
      "name": "transferOwnership",
      "outputs": [],
      "stateMutability": "nonpayable",
      "type": "function"
    }
  ],
  "bytecode": "0x60c0604052600560808190526402e776562760dc1b60a09081526200002891600c9190620001ad565b5066038d7ea4c68000600d556063600e55600f805460ff191690553480156200005057600080fd5b506040516200281c3803806200281c833981016040819052620000739162000320565b8251839083906200008c906000906020850190620001ad565b508051620000a2906001906020840190620001ad565b505050620000bf620000b9620000d360201b60201c565b620000d7565b620000ca8162000129565b505050620003ee565b3390565b600a80546001600160a01b038381166001600160a01b0319831681179093556040519116919082907f8be0079c531659141344cd1fd0a4f28419497f9722a3daafe3b4186f6b6457e090600090a35050565b620001336200014c565b80516200014890600b906020840190620001ad565b5050565b600a546001600160a01b03163314620001ab5760405162461bcd60e51b815260206004820181905260248201527f4f776e61626c653a2063616c6c6572206973206e6f7420746865206f776e6572604482015260640160405180910390fd5b565b828054620001bb90620003b1565b90600052602060002090601f016020900481019282620001df57600085556200022a565b82601f10620001fa57805160ff19168380011785556200022a565b828001600101855582156200022a579182015b828111156200022a5782518255916020019190600101906200020d565b50620002389291506200023c565b5090565b5b808211156200023857600081556001016200023d565b634e487b7160e01b600052604160045260246000fd5b600082601f8301126200027b57600080fd5b81516001600160401b038082111562000298576200029862000253565b604051601f8301601f19908116603f01168101908282118183101715620002c357620002c362000253565b81604052838152602092508683858801011115620002e057600080fd5b600091505b83821015620003045785820183015181830184015290820190620002e5565b83821115620003165760008385830101525b9695505050505050565b6000806000606084860312156200033657600080fd5b83516001600160401b03808211156200034e57600080fd5b6200035c8783880162000269565b945060208601519150808211156200037357600080fd5b620003818783880162000269565b935060408601519150808211156200039857600080fd5b50620003a78682870162000269565b9150509250925092565b600181811c90821680620003c657607f821691505b60208210811415620003e857634e487b7160e01b600052602260045260246000fd5b50919050565b61241e80620003fe6000396000f3fe6080604052600436106101c25760003560e01c806368ef9d3c116100f7578063b88d4fde11610095578063d5abeb0111610064578063d5abeb01146104dd578063e0391b09146104f3578063e985e9c514610515578063f2fde38b1461055e57600080fd5b8063b88d4fde14610468578063bedb86fb14610488578063c6682862146104a8578063c87b56dd146104bd57600080fd5b80637bf08621116100d15780637bf08621146103f55780638da5cb5b1461041557806395d89b4114610433578063a22cb4651461044857600080fd5b806368ef9d3c1461039357806370a08231146103c0578063715018a6146103e057600080fd5b80632f745c5911610164578063509c71801161013e578063509c71801461033157806355f804b3146103395780635c975abb146103595780636352211e1461037357600080fd5b80632f745c59146102d157806342842e0e146102f15780634f6ccce71461031157600080fd5b8063095ea7b3116101a0578063095ea7b31461025657806313faede61461027857806318160ddd1461029c57806323b872dd146102b157600080fd5b806301ffc9a7146101c757806306fdde03146101fc578063081812fc1461021e575b600080fd5b3480156101d357600080fd5b506101e76101e2366004611d2e565b61057e565b60405190151581526020015b60405180910390f35b34801561020857600080fd5b506102116105a9565b6040516101f39190611da3565b34801561022a57600080fd5b5061023e610239366004611db6565b61063b565b6040516001600160a01b0390911681526020016101f3565b34801561026257600080fd5b50610276610271366004611deb565b610662565b005b34801561028457600080fd5b5061028e600d5481565b6040519081526020016101f3565b3480156102a857600080fd5b5060085461028e565b3480156102bd57600080fd5b506102766102cc366004611e15565b61077d565b3480156102dd57600080fd5b5061028e6102ec366004611deb565b6107ae565b3480156102fd57600080fd5b5061027661030c366004611e15565b610844565b34801561031d57600080fd5b5061028e61032c366004611db6565b61085f565b6102766108f2565b34801561034557600080fd5b50610276610354366004611edd565b610b50565b34801561036557600080fd5b50600f546101e79060ff1681565b34801561037f57600080fd5b5061023e61038e366004611db6565b610b6f565b34801561039f57600080fd5b506103b36103ae366004611db6565b610bcf565b6040516101f39190611f75565b3480156103cc57600080fd5b5061028e6103db366004611f88565b610d26565b3480156103ec57600080fd5b50610276610dac565b34801561040157600080fd5b50610276610410366004611deb565b610dc0565b34801561042157600080fd5b50600a546001600160a01b031661023e565b34801561043f57600080fd5b50610211610e28565b34801561045457600080fd5b50610276610463366004611fb3565b610e37565b34801561047457600080fd5b50610276610483366004611fe6565b610e42565b34801561049457600080fd5b506102766104a3366004612062565b610e7a565b3480156104b457600080fd5b50610211610e95565b3480156104c957600080fd5b506102116104d8366004611db6565b610f23565b3480156104e957600080fd5b5061028e600e5481565b3480156104ff57600080fd5b50610508611001565b6040516101f3919061207d565b34801561052157600080fd5b506101e76105303660046120df565b6001600160a01b03918216600090815260056020908152604080832093909416825291909152205460ff1690565b34801561056a57600080fd5b50610276610579366004611f88565b611127565b60006001600160e01b0319821663780e9d6360e01b14806105a357506105a3826111a0565b92915050565b6060600080546105b890612109565b80601f01602080910402602001604051908101604052809291908181526020018280546105e490612109565b80156106315780601f1061060657610100808354040283529160200191610631565b820191906000526020600020905b81548152906001019060200180831161061457829003601f168201915b5050505050905090565b6000610646826111f0565b506000908152600460205260409020546001600160a01b031690565b600061066d82610b6f565b9050806001600160a01b0316836001600160a01b031614156106e05760405162461bcd60e51b815260206004820152602160248201527f4552433732313a20617070726f76616c20746f2063757272656e74206f776e656044820152603960f91b60648201526084015b60405180910390fd5b336001600160a01b03821614806106fc57506106fc8133610530565b61076e5760405162461bcd60e51b815260206004820152603e60248201527f4552433732313a20617070726f76652063616c6c6572206973206e6f7420746f60448201527f6b656e206f776e6572206e6f7220617070726f76656420666f7220616c6c000060648201526084016106d7565b610778838361124f565b505050565b61078733826112bd565b6107a35760405162461bcd60e51b81526004016106d790612144565b61077883838361133c565b60006107b983610d26565b821061081b5760405162461bcd60e51b815260206004820152602b60248201527f455243373231456e756d657261626c653a206f776e657220696e646578206f7560448201526a74206f6620626f756e647360a81b60648201526084016106d7565b506001600160a01b03919091166000908152600660209081526040808320938352929052205490565b61077883838360405180602001604052806000815250610e42565b600061086a60085490565b82106108cd5760405162461bcd60e51b815260206004820152602c60248201527f455243373231456e756d657261626c653a20676c6f62616c20696e646578206f60448201526b7574206f6620626f756e647360a01b60648201526084016106d7565b600882815481106108e0576108e0612192565b90600052602060002001549050919050565b60006108fd60085490565b600f5490915060ff16156109535760405162461bcd60e51b815260206004820152601760248201527f4e46547320756e646572206d61696e74656e616e63652100000000000000000060448201526064016106d7565b600e548111156109af5760405162461bcd60e51b815260206004820152602160248201527f536f7272792c20616c6c204e4654732068617665206265656e206d696e7465646044820152602160f81b60648201526084016106d7565b600034116109ff5760405162461bcd60e51b815260206004820152601a60248201527f457468657220746f6f206c6f7720666f72206d696e74696e672100000000000060448201526064016106d7565b600a546001600160a01b03163314610a2057600d54341015610a2057600080fd5b610a3433610a2f8360016121be565b6114e3565b60106040518060a00160405280836001610a4e91906121be565b8152336020820152346040820152606001610a6d6104d88560016121be565b81524260209182015282546001808201855560009485529382902083516005909202019081558282015193810180546001600160a01b0319166001600160a01b03909516949094179093556040820151600284015560608201518051929392610adc9260038501920190611c7f565b5060809190910151600490910155610af86104d88260016121be565b604051610b0591906121d6565b6040805191829003822083835234602084015242838301529051909133917fb9508407a6eccb191d8da3286f4173697cf95604e9ea192fe5ab7c862b5221f69181900360600190a350565b610b586114fd565b8051610b6b90600b906020840190611c7f565b5050565b6000818152600260205260408120546001600160a01b0316806105a35760405162461bcd60e51b8152602060048201526018602482015277115490cdcc8c4e881a5b9d985b1a59081d1bdad95b88125160421b60448201526064016106d7565b610c0a6040518060a001604052806000815260200160006001600160a01b031681526020016000815260200160608152602001600081525090565b6010610c176001846121f2565b81548110610c2757610c27612192565b90600052602060002090600502016040518060a0016040529081600082015481526020016001820160009054906101000a90046001600160a01b03166001600160a01b03166001600160a01b0316815260200160028201548152602001600382018054610c9390612109565b80601f0160208091040260200160405190810160405280929190818152602001828054610cbf90612109565b8015610d0c5780601f10610ce157610100808354040283529160200191610d0c565b820191906000526020600020905b815481529060010190602001808311610cef57829003601f168201915b505050505081526020016004820154815250509050919050565b60006001600160a01b038216610d905760405162461bcd60e51b815260206004820152602960248201527f4552433732313a2061646472657373207a65726f206973206e6f7420612076616044820152683634b21037bbb732b960b91b60648201526084016106d7565b506001600160a01b031660009081526003602052604090205490565b610db46114fd565b610dbe6000611557565b565b610dc86114fd565b6000826001600160a01b03168260405160006040518083038185875af1925050503d8060008114610e15576040519150601f19603f3d011682016040523d82523d6000602084013e610e1a565b606091505b505090508061077857600080fd5b6060600180546105b890612109565b610b6b3383836115a9565b610e4c33836112bd565b610e685760405162461bcd60e51b81526004016106d790612144565b610e7484848484611678565b50505050565b610e826114fd565b600f805460ff1916911515919091179055565b600c8054610ea290612109565b80601f0160208091040260200160405190810160405280929190818152602001828054610ece90612109565b8015610f1b5780601f10610ef057610100808354040283529160200191610f1b565b820191906000526020600020905b815481529060010190602001808311610efe57829003601f168201915b505050505081565b6000818152600260205260409020546060906001600160a01b0316610fa25760405162461bcd60e51b815260206004820152602f60248201527f4552433732314d657461646174613a2055524920717565727920666f72206e6f60448201526e3732bc34b9ba32b73a103a37b5b2b760891b60648201526084016106d7565b6000610fac6116ab565b90506000815111610fcc5760405180602001604052806000815250610ffa565b80610fd6846116ba565b600c604051602001610fea93929190612209565b6040516020818303038152906040525b9392505050565b60606010805480602002602001604051908101604052809291908181526020016000905b8282101561111e5760008481526020908190206040805160a081018252600586029092018054835260018101546001600160a01b03169383019390935260028301549082015260038201805491929160608401919061108390612109565b80601f01602080910402602001604051908101604052809291908181526020018280546110af90612109565b80156110fc5780601f106110d1576101008083540402835291602001916110fc565b820191906000526020600020905b8154815290600101906020018083116110df57829003601f168201915b5050505050815260200160048201548152505081526020019060010190611025565b50505050905090565b61112f6114fd565b6001600160a01b0381166111945760405162461bcd60e51b815260206004820152602660248201527f4f776e61626c653a206e6577206f776e657220697320746865207a65726f206160448201526564647265737360d01b60648201526084016106d7565b61119d81611557565b50565b60006001600160e01b031982166380ac58cd60e01b14806111d157506001600160e01b03198216635b5e139f60e01b145b806105a357506301ffc9a760e01b6001600160e01b03198316146105a3565b6000818152600260205260409020546001600160a01b031661119d5760405162461bcd60e51b8152602060048201526018602482015277115490cdcc8c4e881a5b9d985b1a59081d1bdad95b88125160421b60448201526064016106d7565b600081815260046020526040902080546001600160a01b0319166001600160a01b038416908117909155819061128482610b6f565b6001600160a01b03167f8c5be1e5ebec7d5bd14f71427d1e84f3dd0314c0f7b2291e5b200ac8c7c3b92560405160405180910390a45050565b6000806112c983610b6f565b9050806001600160a01b0316846001600160a01b0316148061131057506001600160a01b0380821660009081526005602090815260408083209388168352929052205460ff165b806113345750836001600160a01b03166113298461063b565b6001600160a01b0316145b949350505050565b826001600160a01b031661134f82610b6f565b6001600160a01b0316146113b35760405162461bcd60e51b815260206004820152602560248201527f4552433732313a207472616e736665722066726f6d20696e636f72726563742060448201526437bbb732b960d91b60648201526084016106d7565b6001600160a01b0382166114155760405162461bcd60e51b8152602060048201526024808201527f4552433732313a207472616e7366657220746f20746865207a65726f206164646044820152637265737360e01b60648201526084016106d7565b6114208383836117b8565b61142b60008261124f565b6001600160a01b03831660009081526003602052604081208054600192906114549084906121f2565b90915550506001600160a01b03821660009081526003602052604081208054600192906114829084906121be565b909155505060008181526002602052604080822080546001600160a01b0319166001600160a01b0386811691821790925591518493918716917fddf252ad1be2c89b69c2b068fc378daa952ba7f163c4a11628f55a4df523b3ef91a4505050565b610b6b828260405180602001604052806000815250611870565b600a546001600160a01b03163314610dbe5760405162461bcd60e51b815260206004820181905260248201527f4f776e61626c653a2063616c6c6572206973206e6f7420746865206f776e657260448201526064016106d7565b600a80546001600160a01b038381166001600160a01b0319831681179093556040519116919082907f8be0079c531659141344cd1fd0a4f28419497f9722a3daafe3b4186f6b6457e090600090a35050565b816001600160a01b0316836001600160a01b0316141561160b5760405162461bcd60e51b815260206004820152601960248201527f4552433732313a20617070726f766520746f2063616c6c65720000000000000060448201526064016106d7565b6001600160a01b03838116600081815260056020908152604080832094871680845294825291829020805460ff191686151590811790915591519182527f17307eab39ab6107e8899845ad3d59bd9653f200f220920489ca2b5937696c31910160405180910390a3505050565b61168384848461133c565b61168f848484846118a3565b610e745760405162461bcd60e51b81526004016106d7906122cd565b6060600b80546105b890612109565b6060816116de5750506040805180820190915260018152600360fc1b602082015290565b8160005b811561170857806116f28161231f565b91506117019050600a83612350565b91506116e2565b60008167ffffffffffffffff81111561172357611723611e51565b6040519080825280601f01601f19166020018201604052801561174d576020820181803683370190505b5090505b8415611334576117626001836121f2565b915061176f600a86612364565b61177a9060306121be565b60f81b81838151811061178f5761178f612192565b60200101906001600160f81b031916908160001a9053506117b1600a86612350565b9450611751565b6001600160a01b0383166118135761180e81600880546000838152600960205260408120829055600182018355919091527ff3f7a9fe364faab93b216da50a3214154f22a0a2b415b23a84c8169e8b636ee30155565b611836565b816001600160a01b0316836001600160a01b0316146118365761183683826119a1565b6001600160a01b03821661184d5761077881611a3e565b826001600160a01b0316826001600160a01b031614610778576107788282611aed565b61187a8383611b31565b61188760008484846118a3565b6107785760405162461bcd60e51b81526004016106d7906122cd565b60006001600160a01b0384163b1561199657604051630a85bd0160e11b81526001600160a01b0385169063150b7a02906118e7903390899088908890600401612378565b6020604051808303816000875af1925050508015611922575060408051601f3d908101601f1916820190925261191f918101906123b5565b60015b61197c573d808015611950576040519150601f19603f3d011682016040523d82523d6000602084013e611955565b606091505b5080516119745760405162461bcd60e51b81526004016106d7906122cd565b805181602001fd5b6001600160e01b031916630a85bd0160e11b149050611334565b506001949350505050565b600060016119ae84610d26565b6119b891906121f2565b600083815260076020526040902054909150808214611a0b576001600160a01b03841660009081526006602090815260408083208584528252808320548484528184208190558352600790915290208190555b5060009182526007602090815260408084208490556001600160a01b039094168352600681528383209183525290812055565b600854600090611a50906001906121f2565b60008381526009602052604081205460088054939450909284908110611a7857611a78612192565b906000526020600020015490508060088381548110611a9957611a99612192565b6000918252602080832090910192909255828152600990915260408082208490558582528120556008805480611ad157611ad16123d2565b6001900381819060005260206000200160009055905550505050565b6000611af883610d26565b6001600160a01b039093166000908152600660209081526040808320868452825280832085905593825260079052919091209190915550565b6001600160a01b038216611b875760405162461bcd60e51b815260206004820181905260248201527f4552433732313a206d696e7420746f20746865207a65726f206164647265737360448201526064016106d7565b6000818152600260205260409020546001600160a01b031615611bec5760405162461bcd60e51b815260206004820152601c60248201527f4552433732313a20746f6b656e20616c7265616479206d696e7465640000000060448201526064016106d7565b611bf8600083836117b8565b6001600160a01b0382166000908152600360205260408120805460019290611c219084906121be565b909155505060008181526002602052604080822080546001600160a01b0319166001600160a01b03861690811790915590518392907fddf252ad1be2c89b69c2b068fc378daa952ba7f163c4a11628f55a4df523b3ef908290a45050565b828054611c8b90612109565b90600052602060002090601f016020900481019282611cad5760008555611cf3565b82601f10611cc657805160ff1916838001178555611cf3565b82800160010185558215611cf3579182015b82811115611cf3578251825591602001919060010190611cd8565b50611cff929150611d03565b5090565b5b80821115611cff5760008155600101611d04565b6001600160e01b03198116811461119d57600080fd5b600060208284031215611d4057600080fd5b8135610ffa81611d18565b60005b83811015611d66578181015183820152602001611d4e565b83811115610e745750506000910152565b60008151808452611d8f816020860160208601611d4b565b601f01601f19169290920160200192915050565b602081526000610ffa6020830184611d77565b600060208284031215611dc857600080fd5b5035919050565b80356001600160a01b0381168114611de657600080fd5b919050565b60008060408385031215611dfe57600080fd5b611e0783611dcf565b946020939093013593505050565b600080600060608486031215611e2a57600080fd5b611e3384611dcf565b9250611e4160208501611dcf565b9150604084013590509250925092565b634e487b7160e01b600052604160045260246000fd5b600067ffffffffffffffff80841115611e8257611e82611e51565b604051601f8501601f19908116603f01168101908282118183101715611eaa57611eaa611e51565b81604052809350858152868686011115611ec357600080fd5b858560208301376000602087830101525050509392505050565b600060208284031215611eef57600080fd5b813567ffffffffffffffff811115611f0657600080fd5b8201601f81018413611f1757600080fd5b61133484823560208401611e67565b8051825260018060a01b036020820151166020830152604081015160408301526000606082015160a06060850152611f6160a0850182611d77565b608093840151949093019390935250919050565b602081526000610ffa6020830184611f26565b600060208284031215611f9a57600080fd5b610ffa82611dcf565b80358015158114611de657600080fd5b60008060408385031215611fc657600080fd5b611fcf83611dcf565b9150611fdd60208401611fa3565b90509250929050565b60008060008060808587031215611ffc57600080fd5b61200585611dcf565b935061201360208601611dcf565b925060408501359150606085013567ffffffffffffffff81111561203657600080fd5b8501601f8101871361204757600080fd5b61205687823560208401611e67565b91505092959194509250565b60006020828403121561207457600080fd5b610ffa82611fa3565b6000602080830181845280855180835260408601915060408160051b870101925083870160005b828110156120d257603f198886030184526120c0858351611f26565b945092850192908501906001016120a4565b5092979650505050505050565b600080604083850312156120f257600080fd5b6120fb83611dcf565b9150611fdd60208401611dcf565b600181811c9082168061211d57607f821691505b6020821081141561213e57634e487b7160e01b600052602260045260246000fd5b50919050565b6020808252602e908201527f4552433732313a2063616c6c6572206973206e6f7420746f6b656e206f776e6560408201526d1c881b9bdc88185c1c1c9bdd995960921b606082015260800190565b634e487b7160e01b600052603260045260246000fd5b634e487b7160e01b600052601160045260246000fd5b600082198211156121d1576121d16121a8565b500190565b600082516121e8818460208701611d4b565b9190910192915050565b600082821015612204576122046121a8565b500390565b60008451602061221c8285838a01611d4b565b85519184019161222f8184848a01611d4b565b8554920191600090600181811c908083168061224c57607f831692505b85831081141561226a57634e487b7160e01b85526022600452602485fd5b80801561227e576001811461228f576122bc565b60ff198516885283880195506122bc565b60008b81526020902060005b858110156122b45781548a82015290840190880161229b565b505083880195505b50939b9a5050505050505050505050565b60208082526032908201527f4552433732313a207472616e7366657220746f206e6f6e20455243373231526560408201527131b2b4bb32b91034b6b83632b6b2b73a32b960711b606082015260800190565b6000600019821415612333576123336121a8565b5060010190565b634e487b7160e01b600052601260045260246000fd5b60008261235f5761235f61233a565b500490565b6000826123735761237361233a565b500690565b6001600160a01b03858116825284166020820152604081018390526080606082018190526000906123ab90830184611d77565b9695505050505050565b6000602082840312156123c757600080fd5b8151610ffa81611d18565b634e487b7160e01b600052603160045260246000fdfea26469706673582212201b120805d3906ecf80f96580954549d3283e13571165281405922d6ca4aa5c3064736f6c634300080b0033",
  "linkReferences": {},
  "deployedLinkReferences": {}
}